{
  "_format": "hh-sol-artifact-1",
  "contractName": "EasyLink",
  "sourceName": "contracts/EasyLink.sol",
  "abi": [
    {
      "inputs": [
        {
          "internalType": "address",
          "name": "_token",
          "type": "address"
        },
        {
          "internalType": "uint256",
          "name": "_amount",
          "type": "uint256"
        },
        {
          "internalType": "address",
          "name": "_verifier",
          "type": "address"
        },
        {
          "internalType": "uint8",
          "name": "_levels",
          "type": "uint8"
        },
        {
          "internalType": "address",
          "name": "_hasher",
          "type": "address"
        }
      ],
      "stateMutability": "nonpayable",
      "type": "constructor"
    },
    {
      "anonymous": false,
      "inputs": [
        {
          "indexed": false,
          "internalType": "uint256",
          "name": "commitment",
          "type": "uint256"
        },
        {
          "indexed": false,
          "internalType": "uint32",
          "name": "index",
          "type": "uint32"
        }
      ],
      "name": "Deposit",
      "type": "event"
    },
    {
      "inputs": [],
      "name": "FIELD_SIZE",
      "outputs": [
        {
          "internalType": "uint256",
          "name": "",
          "type": "uint256"
        }
      ],
      "stateMutability": "view",
      "type": "function"
    },
    {
      "inputs": [],
      "name": "ROOT_HISTORY_SIZE",
      "outputs": [
        {
          "internalType": "uint8",
          "name": "",
          "type": "uint8"
        }
      ],
      "stateMutability": "view",
      "type": "function"
    },
    {
      "inputs": [],
      "name": "amount",
      "outputs": [
        {
          "internalType": "uint256",
          "name": "",
          "type": "uint256"
        }
      ],
      "stateMutability": "view",
      "type": "function"
    },
    {
      "inputs": [
        {
          "internalType": "uint256",
          "name": "",
          "type": "uint256"
        }
      ],
      "name": "commitments",
      "outputs": [
        {
          "internalType": "bool",
          "name": "",
          "type": "bool"
        }
      ],
      "stateMutability": "view",
      "type": "function"
    },
    {
      "inputs": [
        {
          "internalType": "uint256",
          "name": "commitment",
          "type": "uint256"
        }
      ],
      "name": "deposit",
      "outputs": [],
      "stateMutability": "nonpayable",
      "type": "function"
    },
    {
      "inputs": [],
      "name": "hasher",
      "outputs": [
        {
          "internalType": "contract IPoseidonHasher",
          "name": "",
          "type": "address"
        }
      ],
      "stateMutability": "view",
      "type": "function"
    },
    {
      "inputs": [],
      "name": "index",
      "outputs": [
        {
          "internalType": "uint32",
          "name": "",
          "type": "uint32"
        }
      ],
      "stateMutability": "view",
      "type": "function"
    },
    {
      "inputs": [
        {
          "internalType": "uint256",
          "name": "root",
          "type": "uint256"
        }
      ],
      "name": "isValidRoot",
      "outputs": [
        {
          "internalType": "bool",
          "name": "",
          "type": "bool"
        }
      ],
      "stateMutability": "view",
      "type": "function"
    },
    {
      "inputs": [
        {
          "internalType": "uint8",
          "name": "",
          "type": "uint8"
        }
      ],
      "name": "levelHashes",
      "outputs": [
        {
          "internalType": "uint256",
          "name": "",
          "type": "uint256"
        }
      ],
      "stateMutability": "view",
      "type": "function"
    },
    {
      "inputs": [],
      "name": "levels",
      "outputs": [
        {
          "internalType": "uint8",
          "name": "",
          "type": "uint8"
        }
      ],
      "stateMutability": "view",
      "type": "function"
    },
    {
      "inputs": [],
      "name": "maxSize",
      "outputs": [
        {
          "internalType": "uint32",
          "name": "",
          "type": "uint32"
        }
      ],
      "stateMutability": "view",
      "type": "function"
    },
    {
      "inputs": [
        {
          "internalType": "uint256",
          "name": "",
          "type": "uint256"
        }
      ],
      "name": "roots",
      "outputs": [
        {
          "internalType": "uint256",
          "name": "",
          "type": "uint256"
        }
      ],
      "stateMutability": "view",
      "type": "function"
    },
    {
      "inputs": [
        {
          "internalType": "uint256",
          "name": "",
          "type": "uint256"
        }
      ],
      "name": "spentNullifiers",
      "outputs": [
        {
          "internalType": "bool",
          "name": "",
          "type": "bool"
        }
      ],
      "stateMutability": "view",
      "type": "function"
    },
    {
      "inputs": [],
      "name": "token",
      "outputs": [
        {
          "internalType": "address",
          "name": "",
          "type": "address"
        }
      ],
      "stateMutability": "view",
      "type": "function"
    },
    {
      "inputs": [],
      "name": "verifier",
      "outputs": [
        {
          "internalType": "address",
          "name": "",
          "type": "address"
        }
      ],
      "stateMutability": "view",
      "type": "function"
    },
    {
      "inputs": [
        {
          "internalType": "uint256[2]",
          "name": "a",
          "type": "uint256[2]"
        },
        {
          "internalType": "uint256[2][2]",
          "name": "b",
          "type": "uint256[2][2]"
        },
        {
          "internalType": "uint256[2]",
          "name": "c",
          "type": "uint256[2]"
        },
        {
          "internalType": "uint256",
          "name": "nullifierHash",
          "type": "uint256"
        },
        {
          "internalType": "address",
          "name": "recipient",
          "type": "address"
        },
        {
          "internalType": "uint256",
          "name": "merkleRoot",
          "type": "uint256"
        }
      ],
      "name": "withdraw",
      "outputs": [],
      "stateMutability": "nonpayable",
      "type": "function"
    },
    {
      "inputs": [
        {
          "internalType": "uint256",
          "name": "i",
          "type": "uint256"
        }
      ],
      "name": "zeros",
      "outputs": [
        {
          "internalType": "uint256",
          "name": "",
          "type": "uint256"
        }
      ],
      "stateMutability": "pure",
      "type": "function"
    }
  ],
  "bytecode": "0x61012060405260008060016101000a81548163ffffffff021916908363ffffffff1602179055503480156200003357600080fd5b50604051620026683803806200266883398181016040528101906200005991906200055c565b818160008260ff1611620000a4576040517f08c379a00000000000000000000000000000000000000000000000000000000081526004016200009b9062000645565b60405180910390fd5b600a8260ff161115620000ee576040517f08c379a0000000000000000000000000000000000000000000000000000000008152600401620000e590620006dd565b60405180910390fd5b816000806101000a81548160ff021916908360ff1602179055508073ffffffffffffffffffffffffffffffffffffffff1660808173ffffffffffffffffffffffffffffffffffffffff168152505060008054906101000a900460ff16600262000158919062000892565b63ffffffff1660a08163ffffffff168152505060005b8260ff168160ff161015620001c457620001918160ff166200024360201b60201c565b600160008360ff1660ff168152602001908152602001600020819055508080620001bb90620008c7565b9150506200016e565b5050508473ffffffffffffffffffffffffffffffffffffffff1660c08173ffffffffffffffffffffffffffffffffffffffff16815250508360e081815250508273ffffffffffffffffffffffffffffffffffffffff166101008173ffffffffffffffffffffffffffffffffffffffff1681525050505050505062000967565b600080820362000276577f1b47eebd31a8cdbc109d42a60ae2f77d3916fdf63e1d6d3c9614c84c66587616905062000474565b60018203620002a8577f0998c45a8df60690d2142a1e29541e4c5203c5f0039e1f736a48a4ea3939996c905062000474565b60028203620002da577f1b8525aeb12de720fbc32b7a5b505efc1bd4396e223644aed9d48c4ecc5a6451905062000474565b600382036200030c577f1937e198ced295751ebf9996ad4429473bb657521a76f372ab62eab9dd09f729905062000474565b600482036200033e577f043fae75b0a1c6cfe6bbd4a260fc421f26cd352974d31d3627896a677f3931a3905062000474565b600582036200036f577e7c68bad132df37627c5fa5e1c06601d5af97124b0bd19f6e29593e1814ae51905062000474565b60068203620003a1577f2aca3ddb1f0c22cd53383b85231c1a10634f160ce945c639b2b799ed8b37f5ae905062000474565b60078203620003d3577f037ca32d66c15af3f7cb3cbc7d5b0fad9104582d24416fdd85c50586d3079a0e905062000474565b6008820362000405577f1c9e22b869e38db54e772baa9a4765b9ccb1ea458ea4a50c3ce9ce5152a95581905062000474565b6009820362000437577f283f3963c14e4a1873557637cf74773b5de1d3dcafa8c2c82f18720fabd5e0f9905062000474565b6040517f08c379a00000000000000000000000000000000000000000000000000000000081526004016200046b9062000945565b60405180910390fd5b919050565b600080fd5b600073ffffffffffffffffffffffffffffffffffffffff82169050919050565b6000620004ab826200047e565b9050919050565b620004bd816200049e565b8114620004c957600080fd5b50565b600081519050620004dd81620004b2565b92915050565b6000819050919050565b620004f881620004e3565b81146200050457600080fd5b50565b6000815190506200051881620004ed565b92915050565b600060ff82169050919050565b62000536816200051e565b81146200054257600080fd5b50565b60008151905062000556816200052b565b92915050565b600080600080600060a086880312156200057b576200057a62000479565b5b60006200058b88828901620004cc565b95505060206200059e8882890162000507565b9450506040620005b188828901620004cc565b9350506060620005c48882890162000545565b9250506080620005d788828901620004cc565b9150509295509295909350565b600082825260208201905092915050565b7f5f6c6576656c732073686f756c642062652067726561746572207468616e2030600082015250565b60006200062d602083620005e4565b91506200063a82620005f5565b602082019050919050565b6000602082019050818103600083015262000660816200061e565b9050919050565b7f5f6c6576656c732073686f756c64206e6f74206265206772656174657220746860008201527f616e203130000000000000000000000000000000000000000000000000000000602082015250565b6000620006c5602583620005e4565b9150620006d28262000667565b604082019050919050565b60006020820190508181036000830152620006f881620006b6565b9050919050565b7f4e487b7100000000000000000000000000000000000000000000000000000000600052601160045260246000fd5b60008160011c9050919050565b6000808291508390505b60018511156200078d57808604811115620007655762000764620006ff565b5b6001851615620007755780820291505b808102905062000785856200072e565b945062000745565b94509492505050565b600082620007a857600190506200087b565b81620007b857600090506200087b565b8160018114620007d15760028114620007dc5762000812565b60019150506200087b565b60ff841115620007f157620007f0620006ff565b5b8360020a9150848211156200080b576200080a620006ff565b5b506200087b565b5060208310610133831016604e8410600b84101617156200084c5782820a905083811115620008465762000845620006ff565b5b6200087b565b6200085b84848460016200073b565b92509050818404811115620008755762000874620006ff565b5b81810290505b9392505050565b600063ffffffff82169050919050565b60006200089f8262000882565b9150620008ac836200051e565b9250620008bf63ffffffff848462000796565b905092915050565b6000620008d4826200051e565b915060ff8203620008ea57620008e9620006ff565b5b600182019050919050565b7f496e646578206f7574206f6620626f756e647300000000000000000000000000600082015250565b60006200092d601383620005e4565b91506200093a82620008f5565b602082019050919050565b6000602082019050818103600083015262000960816200091e565b9050919050565b60805160a05160c05160e05161010051611c8b620009dd600039600081816103b2015261054f0152600081816106c7015281816107a2015261086501526000818161068a015281816108270152610bd70152600081816103780152610bfd015260008181610bb30152610d890152611c8b6000f3fe608060405234801561001057600080fd5b506004361061010b5760003560e01c8063811608fd116100a2578063cd87a3b411610071578063cd87a3b4146102bc578063ce7597c9146102da578063e82955881461030a578063ed33639f1461033a578063fc0c546a146103585761010b565b8063811608fd14610222578063aa8c217c14610252578063b6b55f2514610270578063c2b40ae41461028c5761010b565b8063414a37ba116100de578063414a37ba1461019a57806348a32bf8146101b857806349ce8997146101d45780634ecf518b146102045761010b565b80632565b159146101105780632986c0e51461012e5780632b7ac3f31461014c5780632cdabbce1461016a575b600080fd5b610118610376565b6040516101259190610f23565b60405180910390f35b61013661039a565b6040516101439190610f23565b60405180910390f35b6101546103b0565b6040516101619190610f7f565b60405180910390f35b610184600480360381019061017f9190610fdf565b6103d4565b6040516101919190611027565b60405180910390f35b6101a2610480565b6040516101af9190611051565b60405180910390f35b6101d260048036038101906101cd9190611290565b6104a4565b005b6101ee60048036038101906101e99190610fdf565b61074f565b6040516101fb9190611027565b60405180910390f35b61020c61076f565b604051610219919061133d565b60405180910390f35b61023c60048036038101906102379190610fdf565b610780565b6040516102499190611027565b60405180910390f35b61025a6107a0565b6040516102679190611051565b60405180910390f35b61028a60048036038101906102859190610fdf565b6107c4565b005b6102a660048036038101906102a19190610fdf565b61095c565b6040516102b39190611051565b60405180910390f35b6102c4610974565b6040516102d1919061133d565b60405180910390f35b6102f460048036038101906102ef9190611384565b610979565b6040516103019190611051565b60405180910390f35b610324600480360381019061031f9190610fdf565b610991565b6040516103319190611051565b60405180910390f35b610342610bb1565b60405161034f9190611410565b60405180910390f35b610360610bd5565b60405161036d9190610f7f565b60405180910390f35b7f000000000000000000000000000000000000000000000000000000000000000081565b600060019054906101000a900463ffffffff1681565b7f000000000000000000000000000000000000000000000000000000000000000081565b60008082036103e6576000905061047b565b6000601e60ff16600060019054906101000a900463ffffffff1661040a919061145a565b905060008190505b83600260008363ffffffff168152602001908152602001600020540361043d5760019250505061047b565b60008163ffffffff160361045357601e60ff1690505b808061045e906114ba565b9150508163ffffffff168163ffffffff1603610412576000925050505b919050565b7f30644e72e131a029b85045b68181585d2833e84879b9709143e1f593f000000181565b6004600084815260200190815260200160002060009054906101000a900460ff1615610505576040517f08c379a00000000000000000000000000000000000000000000000000000000081526004016104fc90611540565b60405180910390fd5b61050e816103d4565b61054d576040517f08c379a0000000000000000000000000000000000000000000000000000000008152600401610544906115ac565b60405180910390fd5b7f000000000000000000000000000000000000000000000000000000000000000073ffffffffffffffffffffffffffffffffffffffff166311479fea87878760405180606001604052808981526020018873ffffffffffffffffffffffffffffffffffffffff168152602001878152506040518563ffffffff1660e01b81526004016105dc94939291906117f9565b602060405180830381865afa1580156105f9573d6000803e3d6000fd5b505050506040513d601f19601f8201168201806040525081019061061d919061186c565b61065c576040517f08c379a0000000000000000000000000000000000000000000000000000000008152600401610653906118e5565b60405180910390fd5b60016004600085815260200190815260200160002060006101000a81548160ff0219169083151502179055507f000000000000000000000000000000000000000000000000000000000000000073ffffffffffffffffffffffffffffffffffffffff1663a9059cbb837f00000000000000000000000000000000000000000000000000000000000000006040518363ffffffff1660e01b8152600401610703929190611905565b6020604051808303816000875af1158015610722573d6000803e3d6000fd5b505050506040513d601f19601f82011682018060405250810190610746919061186c565b50505050505050565b60036020528060005260406000206000915054906101000a900460ff1681565b60008054906101000a900460ff1681565b60046020528060005260406000206000915054906101000a900460ff1681565b7f000000000000000000000000000000000000000000000000000000000000000081565b6003600082815260200190815260200160002060009054906101000a900460ff1615610825576040517f08c379a000000000000000000000000000000000000000000000000000000000815260040161081c9061197a565b60405180910390fd5b7f000000000000000000000000000000000000000000000000000000000000000073ffffffffffffffffffffffffffffffffffffffff166323b872dd33307f00000000000000000000000000000000000000000000000000000000000000006040518463ffffffff1660e01b81526004016108a29392919061199a565b6020604051808303816000875af11580156108c1573d6000803e3d6000fd5b505050506040513d601f19601f820116820180604052508101906108e5919061186c565b5060006108f182610bf9565b905060016003600084815260200190815260200160002060006101000a81548160ff0219169083151502179055507f7bbfdf3b7869b8cc969ad02e8d3ceed756e762259111d280f0efa92a8169561982826040516109509291906119d1565b60405180910390a15050565b60026020528060005260406000206000915090505481565b601e81565b60016020528060005260406000206000915090505481565b60008082036109c2577f1b47eebd31a8cdbc109d42a60ae2f77d3916fdf63e1d6d3c9614c84c665876169050610bac565b600182036109f2577f0998c45a8df60690d2142a1e29541e4c5203c5f0039e1f736a48a4ea3939996c9050610bac565b60028203610a22577f1b8525aeb12de720fbc32b7a5b505efc1bd4396e223644aed9d48c4ecc5a64519050610bac565b60038203610a52577f1937e198ced295751ebf9996ad4429473bb657521a76f372ab62eab9dd09f7299050610bac565b60048203610a82577f043fae75b0a1c6cfe6bbd4a260fc421f26cd352974d31d3627896a677f3931a39050610bac565b60058203610ab1577e7c68bad132df37627c5fa5e1c06601d5af97124b0bd19f6e29593e1814ae519050610bac565b60068203610ae1577f2aca3ddb1f0c22cd53383b85231c1a10634f160ce945c639b2b799ed8b37f5ae9050610bac565b60078203610b11577f037ca32d66c15af3f7cb3cbc7d5b0fad9104582d24416fdd85c50586d3079a0e9050610bac565b60088203610b41577f1c9e22b869e38db54e772baa9a4765b9ccb1ea458ea4a50c3ce9ce5152a955819050610bac565b60098203610b71577f283f3963c14e4a1873557637cf74773b5de1d3dcafa8c2c82f18720fabd5e0f99050610bac565b6040517f08c379a0000000000000000000000000000000000000000000000000000000008152600401610ba390611a46565b60405180910390fd5b919050565b7f000000000000000000000000000000000000000000000000000000000000000081565b7f000000000000000000000000000000000000000000000000000000000000000081565b60007f000000000000000000000000000000000000000000000000000000000000000063ffffffff16600060019054906101000a900463ffffffff1663ffffffff1603610c7b576040517f08c379a0000000000000000000000000000000000000000000000000000000008152600401610c7290611ab2565b60405180910390fd5b7f30644e72e131a029b85045b68181585d2833e84879b9709143e1f593f00000018210610cdd576040517f08c379a0000000000000000000000000000000000000000000000000000000008152600401610cd490611b1e565b60405180910390fd5b60008060019054906101000a900463ffffffff169050600083905060008060005b60008054906101000a900460ff1660ff168160ff161015610e59576000600286610d28919061145a565b63ffffffff1603610d6757839250610d428160ff16610991565b915083600160008360ff1660ff16815260200190815260200160002081905550610d87565b600160008260ff1660ff1681526020019081526020016000205492508391505b7f000000000000000000000000000000000000000000000000000000000000000073ffffffffffffffffffffffffffffffffffffffff166329a5f2f66040518060400160405280868152602001858152506040518263ffffffff1660e01b8152600401610df49190611b3e565b602060405180830381865afa158015610e11573d6000803e3d6000fd5b505050506040513d601f19601f82011682018060405250810190610e359190611b6e565b9350600285610e449190611b9b565b94508080610e5190611bcc565b915050610cfe565b508260026000601e60ff16600060019054906101000a900463ffffffff16610e81919061145a565b63ffffffff168152602001908152602001600020819055506000600181819054906101000a900463ffffffff1680929190610ebb90611bf5565b91906101000a81548163ffffffff021916908363ffffffff160217905550506001600060019054906101000a900463ffffffff16610ef99190611c21565b945050505050919050565b600063ffffffff82169050919050565b610f1d81610f04565b82525050565b6000602082019050610f386000830184610f14565b92915050565b600073ffffffffffffffffffffffffffffffffffffffff82169050919050565b6000610f6982610f3e565b9050919050565b610f7981610f5e565b82525050565b6000602082019050610f946000830184610f70565b92915050565b6000604051905090565b600080fd5b6000819050919050565b610fbc81610fa9565b8114610fc757600080fd5b50565b600081359050610fd981610fb3565b92915050565b600060208284031215610ff557610ff4610fa4565b5b600061100384828501610fca565b91505092915050565b60008115159050919050565b6110218161100c565b82525050565b600060208201905061103c6000830184611018565b92915050565b61104b81610fa9565b82525050565b60006020820190506110666000830184611042565b92915050565b600080fd5b6000601f19601f8301169050919050565b7f4e487b7100000000000000000000000000000000000000000000000000000000600052604160045260246000fd5b6110ba82611071565b810181811067ffffffffffffffff821117156110d9576110d8611082565b5b80604052505050565b60006110ec610f9a565b90506110f882826110b1565b919050565b600067ffffffffffffffff82111561111857611117611082565b5b602082029050919050565b600080fd5b600061113b611136846110fd565b6110e2565b9050806020840283018581111561115557611154611123565b5b835b8181101561117e578061116a8882610fca565b845260208401935050602081019050611157565b5050509392505050565b600082601f83011261119d5761119c61106c565b5b60026111aa848285611128565b91505092915050565b600067ffffffffffffffff8211156111ce576111cd611082565b5b602082029050919050565b60006111ec6111e7846111b3565b6110e2565b9050806040840283018581111561120657611205611123565b5b835b8181101561122f578061121b8882611188565b845260208401935050604081019050611208565b5050509392505050565b600082601f83011261124e5761124d61106c565b5b600261125b8482856111d9565b91505092915050565b61126d81610f5e565b811461127857600080fd5b50565b60008135905061128a81611264565b92915050565b60008060008060008061016087890312156112ae576112ad610fa4565b5b60006112bc89828a01611188565b96505060406112cd89828a01611239565b95505060c06112de89828a01611188565b9450506101006112f089828a01610fca565b93505061012061130289828a0161127b565b92505061014061131489828a01610fca565b9150509295509295509295565b600060ff82169050919050565b61133781611321565b82525050565b6000602082019050611352600083018461132e565b92915050565b61136181611321565b811461136c57600080fd5b50565b60008135905061137e81611358565b92915050565b60006020828403121561139a57611399610fa4565b5b60006113a88482850161136f565b91505092915050565b6000819050919050565b60006113d66113d16113cc84610f3e565b6113b1565b610f3e565b9050919050565b60006113e8826113bb565b9050919050565b60006113fa826113dd565b9050919050565b61140a816113ef565b82525050565b60006020820190506114256000830184611401565b92915050565b7f4e487b7100000000000000000000000000000000000000000000000000000000600052601260045260246000fd5b600061146582610f04565b915061147083610f04565b9250826114805761147f61142b565b5b828206905092915050565b7f4e487b7100000000000000000000000000000000000000000000000000000000600052601160045260246000fd5b60006114c582610f04565b9150600082036114d8576114d761148b565b5b600182039050919050565b600082825260208201905092915050565b7f4e756c6c696669657220616c7265616479207370656e74000000000000000000600082015250565b600061152a6017836114e3565b9150611535826114f4565b602082019050919050565b600060208201905081810360008301526115598161151d565b9050919050565b7f526f6f74206973206e6f742076616c6964000000000000000000000000000000600082015250565b60006115966011836114e3565b91506115a182611560565b602082019050919050565b600060208201905081810360008301526115c581611589565b9050919050565b600060029050919050565b600081905092915050565b6000819050919050565b6115f581610fa9565b82525050565b600061160783836115ec565b60208301905092915050565b6000602082019050919050565b611629816115cc565b61163381846115d7565b925061163e826115e2565b8060005b8381101561166f57815161165687826115fb565b965061166183611613565b925050600181019050611642565b505050505050565b600060029050919050565b600081905092915050565b6000819050919050565b600081905092915050565b6116ab816115cc565b6116b58184611697565b92506116c0826115e2565b8060005b838110156116f15781516116d887826115fb565b96506116e383611613565b9250506001810190506116c4565b505050505050565b600061170583836116a2565b60408301905092915050565b6000602082019050919050565b61172781611677565b6117318184611682565b925061173c8261168d565b8060005b8381101561176d57815161175487826116f9565b965061175f83611711565b925050600181019050611740565b505050505050565b600060039050919050565b600081905092915050565b6000819050919050565b6000602082019050919050565b6117ab81611775565b6117b58184611780565b92506117c08261178b565b8060005b838110156117f15781516117d887826115fb565b96506117e383611795565b9250506001810190506117c4565b505050505050565b60006101608201905061180f6000830187611620565b61181c604083018661171e565b61182960c0830185611620565b6118376101008301846117a2565b95945050505050565b6118498161100c565b811461185457600080fd5b50565b60008151905061186681611840565b92915050565b60006020828403121561188257611881610fa4565b5b600061189084828501611857565b91505092915050565b7f50726f6f66206973206e6f742076616c69640000000000000000000000000000600082015250565b60006118cf6012836114e3565b91506118da82611899565b602082019050919050565b600060208201905081810360008301526118fe816118c2565b9050919050565b600060408201905061191a6000830185610f70565b6119276020830184611042565b9392505050565b7f4475706c69636174656420636f6d6d69746d656e740000000000000000000000600082015250565b60006119646015836114e3565b915061196f8261192e565b602082019050919050565b6000602082019050818103600083015261199381611957565b9050919050565b60006060820190506119af6000830186610f70565b6119bc6020830185610f70565b6119c96040830184611042565b949350505050565b60006040820190506119e66000830185611042565b6119f36020830184610f14565b9392505050565b7f496e646578206f7574206f6620626f756e647300000000000000000000000000600082015250565b6000611a306013836114e3565b9150611a3b826119fa565b602082019050919050565b60006020820190508181036000830152611a5f81611a23565b9050919050565b7f4d65726b6c6520747265652069732066756c6c00000000000000000000000000600082015250565b6000611a9c6013836114e3565b9150611aa782611a66565b602082019050919050565b60006020820190508181036000830152611acb81611a8f565b9050919050565b7f4c6561662068617320746f2062652077697468696e206669656c642073697a65600082015250565b6000611b086020836114e3565b9150611b1382611ad2565b602082019050919050565b60006020820190508181036000830152611b3781611afb565b9050919050565b6000604082019050611b536000830184611620565b92915050565b600081519050611b6881610fb3565b92915050565b600060208284031215611b8457611b83610fa4565b5b6000611b9284828501611b59565b91505092915050565b6000611ba682610f04565b9150611bb183610f04565b925082611bc157611bc061142b565b5b828204905092915050565b6000611bd782611321565b915060ff8203611bea57611be961148b565b5b600182019050919050565b6000611c0082610f04565b915063ffffffff8203611c1657611c1561148b565b5b600182019050919050565b6000611c2c82610f04565b9150611c3783610f04565b925082821015611c4a57611c4961148b565b5b82820390509291505056fea2646970667358221220663bae15f08dd2a2b4e69dd06c7b6829f21c1ebdeefe789103da83ce4d6c791b64736f6c634300080d0033",
  "linkReferences": {},
  "deployedLinkReferences": {}
}